:0400000013EF02F008
:1000080000C016F001C015F0F2A432D0D59EF29AC5
:10001800F294EE0ED66E850ED76E000E1C1802E115
:10002800000E1B1802E1F9D91FD0000E1C1802E1BE
:10003800010E1B1802E1CAD917D0000E1C1802E1E4
:10004800020E1B1802E16FD90FD0000E1C1802E136
:10005800030E1B1802E1CBD807D0000E1C1802E1D2
:10006800040E1B1801E10ED9F28A830ED56E1CD03E
:10007800F2A21AD0F298F292800E1C18006E800E2E
:10008800005C02E1050E1B5C06E2836A176A186AC7
:100098001B4A1C2A08D0000E1C1802E1050E1B186A
:1000A80002E11B6A1C6AF28816C000F015C001F054
:0200B800110035
:1000BA000134083609360450085E0550D8A0053CBC
:1000CA00095E003601360F0E0C6E01340836093609
:1000DA00045000A006D0085E0550D8A0053C095E71
:1000EA0005D008260550D8B0053C09260036013649
:1000FA000C2EEBD700B006D0045008260550D8B015
:08010A00053C0926000012006B
:100112000450000A08E10550000A05E1FF0E006ED6
:100122007F0E016E57D00D6A096A086A01500010ED
:10013200D8B4000C015005180A6E0ABE0D1E0B6AD7
:1001420005AE05D0041E051E042AD8B4052A01AE48
:1001520005D0001E011E002AD8B4012A0150051044
:100162000A6E0ABE10D0A8DF0BB020D00DAE000C74
:10017200001E011E002AD8B4012A081E091E082AE0
:10018200D8B4092A000C05AE0DD001BE07D001502B
:10019200096E0050086E016A006AE8D7016A006AB7
:1001A200002A000C011E001E0B2ADDD7082AD8B433
:1001B200092A0450085CD8A4D9D70550095CD8A4F0
:1001C200D5D7096A086A002AD8B4012A01AECED767
:0601D2000000FF0C12000A
:1001D800086A080E0C6E003408360450085ED8B061
:0E01E80002D00826D89000360C2EF5D7120053
:1001F600030E046E000E056E17C000F018C001F065
:1002060085DF08C000F009C001F000C017F001C08A
:1002160018F0000E011802E1000E00181CE1FF0E96
:10022600046E83CF00F0D5DF08C000F000C083FF66
:1002360083CF00F0000E016E00360136009000C03C
:1002460019F001C01AF00050010F836E174A182AE0
:10025600196A1A6A17D0000E1A1802E1000E191848
:100266000BE183CF19F0000E1A6E83CF00F0003237
:10027600009E00C083FF06D019C083FF196A1A6A60
:06028600174A182A1200BD
:10028C008350000A07E1180E836E83CF19F0000E1D
:10029C001A6E46D0000E181802E1000E17181AE15B
:1002AC0019C002F01AC003F003320232039E03BCE1
:1002BC00038E03AE03D002E3024A032A02C019F0F4
:1002CC0003C01AF083CF00F0003600900250005C9F
:1002DC00836E19D083501924036E000E1A20046EFD
:1002EC0003C000F004C001F001320032019E01BCD9
:1002FC00018E01AE03D002E3004A012A00C083FF45
:10030C00193619901A368350810A05E1010E176EC1
:10031C00000E186E05D08350180A02E1176A186A8D
:02032C001200BD
:10032E00000E181802E1000E17181DE18350000A86
:10033E0003E1010E836E16D08350400A0BE183CF8A
:10034E0000F00036009000C083FF010E176E000E05
:10035E00186E08D083CF00F0003600900036009063
:10036E0000C083FF14D08350020A09E183CF00F04E
:10037E000032009E00C083FF176A186A08D083CF30
:10038E0000F00032009E0032009E00C083FF12007B
:10039E00030ED56EEE0ED66E850ED76E0F0EC16E97
:1003AE00010E936E816A956A836AC00EF26EF40E28
:0603BE00F16EF28812004E
:1003C4000900F5CFE6FF0006FBE10106F9E11200A2
:1003D4008350800A05E1010E176E000E186E05D0D9
:1003E4008350010A02E1176A186A000E181802E124
:1003F400000E17180DE18350000A03E1010E836E0D
:1004040006D083CF00F00036009000C083FF06D0F2
:0E04140083CF00F00032009E00C083FF120074
:04042200832A120017
:10042600176A186A196A1A6A1B6A1C6AB5DF000E0F
:100436001C1802E1000E1B1803E1F28AD58E08D0C3
:10044600000E1C1802E1050E1B1802E1F29AD59E59
:04045600EED7FFD707
:020000040030CA
:0E000000000C1F1EFF8381FF0FC00FE00F409A
:00000001FF
