:100000000C9458000C9475000C9475000C947500B9
:100010000C9475000C9475000C9475000C9475008C
:100020000C9475000C9475000C9475000C9475007C
:100030000C9475000C9475000C9475000C9475006C
:100040000C949C000C9475000C9475000C94750035
:100050000C9475000C9475000C9475000C9475004C
:100060000C9475000C94750000000000230026001D
:10007000290004040404040404040202020202022B
:10008000030303030303010204081020408001025C
:1000900004081020010204081020000000080002DB
:1000A0000100000304070000000000000000DE0261
:1000B00011241FBECFEFD8E0DEBFCDBF21E0A0E00E
:1000C000B1E001C01D92A531B207E1F710E0C8E52B
:1000D000D0E004C02197FE010E941A03C735D10762
:1000E000C9F70E94E6000C9420030C9400003FB76F
:1000F000F8948091110190911201A0911301B09197
:10010000140126B5A89B05C02F3F19F00196A11D2B
:10011000B11D3FBFBA2FA92F982F8827BC01CD0151
:10012000620F711D811D911D42E0660F771F881FB0
:10013000991F4A95D1F708951F920F920FB60F920B
:1001400011242F933F938F939F93AF93BF938091ED
:100150000D0190910E01A0910F01B091100130910D
:100160000C0123E0230F2D3758F50196A11DB11D79
:1001700020930C0180930D0190930E01A0930F0129
:10018000B09310018091110190911201A09113017F
:10019000B09114010196A11DB11D8093110190939E
:1001A0001201A0931301B0931401BF91AF919F91DD
:1001B0008F913F912F910F900FBE0F901F90189528
:1001C00026E8230F0296A11DB11DD2CF789484B5E5
:1001D000826084BD84B5816084BD85B5826085BD43
:1001E00085B5816085BD80916E00816080936E00D1
:1001F00010928100809181008260809381008091C3
:100200008100816080938100809180008160809373
:1002100080008091B10084608093B1008091B00033
:1002200081608093B00080917A00846080937A002E
:1002300080917A00826080937A0080917A00816058
:1002400080937A0080917A00806880937A0010927F
:10025000C1008FEF8AB91BB884B915B870E8872E32
:1002600070E0972EE8E12E2EF3E0AF2EB12C332470
:10027000339400E010E0C1E0D0E0E8EAF0E08491DF
:10028000E4E9F0E09491F4012491211145C0109229
:100290000B0110920A012FB7F89480910D019091F3
:1002A0000E01A0910F01B09110012FBF40910201EA
:1002B000509103016091040170910501841B950B1D
:1002C000A60BB70B883E9340A105B105F0F02FB700
:1002D000F89480910D0190910E01A0910F01B091C1
:1002E00010012FBF8093020190930301A09304019A
:1002F000B09305018091060190910701813091052D
:1003000009F089C08BB18F5F8BB90115110509F414
:10031000B4CF0E940000B1CF882359F0833009F494
:1003200063C008F056C0813009F464C0823009F41B
:1003300065C0E22FF0E0EE0FFF1FE859FF4FA591D7
:10034000B4918C91982309F4A2CFD0930B01C09360
:100350000A010E9477002B013C015CE2C52EDD24DE
:10036000D394E12CF12C0E94770064197509860959
:100370009709683E734081059105A8F3F1E0CF1A13
:10038000D108E108F10828EE420E23E0521E611C5C
:10039000711CC114D104E104F10429F71092090180
:1003A000109208011BB880910601909107010196F7
:1003B000909307018093060185B980910601909181
:1003C0000701069709F067CF109207011092060106
:1003D00062CF8730B1F08830D1F0843009F0A9CFF6
:1003E000809180008F7D03C0809180008F77809303
:1003F00080009FCF84B58F7784BD9BCF84B58F7DE0
:10040000FBCF8091B0008F778093B00092CF809126
:10041000B0008F7DF9CF82309105F1F48BB1803837
:1004200081F4D0930901C093080180910801909153
:100430000901892B09F070C08BB181110AC03BB84A
:1004400064CF8BB1813089F71092090110920801B5
:10045000ECCF8BB1880F58CF8330910539F580915F
:10046000080190910901892B91F48BB1882339F30C
:100470008BB1803441F48BB1880F8BB9D0930901D3
:10048000C093080142CF8BB1880F880F3DCF8BB14D
:10049000823041F48BB186958BB91092090110928C
:1004A000080133CF8BB1869586952ECF8430910588
:1004B00009F044C08091080190910901B5010E94A2
:1004C000F2029093090180930801892BC9F49BB132
:1004D00081E09F3F08F480E0890F8BB98BB1880FD2
:1004E0008F5F8BB9809108019091090101969093DB
:1004F000090180930801109201011092000105CFBB
:100500008091000190910101009749F48BB190E036
:1005100090930101809300018BB18695F5CE8BB944
:10052000109201011092000180910801909109013F
:1005300001969093090180930801E7CE059709F091
:10054000E4CE8BB1811108C02BB88BB190E09093B1
:10055000010180930001D9CE8091000190910101A9
:100560002091080130910901232BA9F497FD0196F0
:100570009595879580930001909301019BB1990F08
:10058000981B9BB98BB1813809F478CF8BB1883136
:1005900009F0BBCE82CF2BB1820F911D97FD019642
:1005A000959587958BB98091000190910101880FF5
:1005B000991F9093010180930001E4CF2FB7F89425
:1005C00080910D0190910E01A0910F01B091100149
:1005D0002FBF8093020190930301A0930401B09375
:1005E0000501089597FB072E16F4009407D077FDB8
:1005F00009D00E94060307FC05D03EF49095819532
:100600009F4F0895709561957F4F0895AA1BBB1B5E
:1006100051E107C0AA1FBB1FA617B70710F0A61B02
:10062000B70B881F991F5A95A9F780959095BC0123
:10063000CD010895EE0FFF1F0590F491E02D099470
:04064000F894FFCF5C
:00000001FF
